:020000040000fa
:080000004802040000000000aa
:020000040000fa
:100008000c18000010180000141800001818000040
:100018001c180000201800002418000028180000f0
:100028002c18000030180000341800002a020000c4
:100038001c1900003c18000040180000441800007b
:10004800481800004c180000501800005418000010
:10005800581800005c1800001c1900001c1900004a
:100068006018000064180000681800006c18000090
:10007800701800001c19000074180000781800009f
:100088001c1900007c18000080180000841800006b
:10009800881800008c180000340200003e0200009e
:1000a800981800009c1800001c1900001c1900007a
:1000b8001c190000a0180000a4180000a8180000cf
:1000c800ac180000b0180000b4180000b818000000
:1000d800bc180000c01800001c1900001c19000002
:1000e8001c190000c4180000c81800001c190000e2
:1000f8001c190000cc180000d01800001c190000c2
:100108001c1900001c1900001c1900001c19000013
:100118001c1900001c190000d41800001c1900004c
:100128001c190000d8180000dc180000e0180000b6
:100138001c1900001c1900001c1900001c190000e3
:10014800e41800001c1900001c1900001c1900000c
:100158001c190000e81800001c1900001c190000f8
:100168001c190000ec180000f0180000f41800003a
:10017800f8180000fc1800001c1900000019000005
:1001880004190000081900000c19000010190000db
:1001980014190000181900001c1900001c1900008f
:1001a8001c1900001c1900001c1900001c19000073
:1001b8001c1900001c1900001c1900001c19000063
:1001c8001c1900001c1900001c1900001c19000053
:1001d8001c1900001c1900001c1900001c19000043
:1001e8001c1900001c1900001c1900001c19000033
:0801f8001c1900001c19000095
:020000040000fa
:10020800e0020000e0020000e0020000e00200005e
:10021800e0020000e0020000e0020000e00200004e
:10022800e0020000e0020000e00200008414000088
:10023800e0020000e0020000e0020000e00200002e
:10024800e0020000e0020000e0020000e00200001e
:10025800e0020000e0020000e0020000e00200000e
:10026800e0020000e0020000e0020000e0020000fe
:10027800e0020000e0020000e0020000e0020000ee
:10028800e0020000e0020000e0020000e0020000de
:10029800e0020000e0020000ec0200003e03000063
:1002a800e0020000e0020000e0020000e0020000be
:1002b800e0020000e0020000e0020000e0020000ae
:1002c800e0020000e0020000e0020000e00200009e
:1002d800e0020000e0020000e0020000e00200008e
:1002e800e0020000e0020000e0020000e00200007e
:1002f800e0020000e0020000e0020000e00200006e
:10030800e0020000e0020000e0020000e00200005d
:10031800e0020000e0020000e0020000e00200004d
:10032800e0020000e0020000e0020000e00200003d
:10033800e0020000e0020000e0020000e00200002d
:10034800e0020000e0020000e0020000e00200001d
:10035800e0020000e0020000e0020000e00200000d
:10036800e0020000e0020000e0020000e0020000fd
:10037800e0020000e0020000e0020000e0020000ed
:10038800e0020000e0020000e0020000e0020000dd
:10039800e0020000e0020000e0020000e0020000cd
:1003a800e0020000e0020000e0020000e0020000bd
:1003b800e0020000e0020000e0020000e0020000ad
:1003c800e0020000e0020000e0020000e00200009d
:1003d800e0020000e0020000e0020000e00200008d
:1003e800e0020000e0020000e0020000e00200007d
:0803f800e0020000e002000039
:020000040000fa
:1004000001000000000800000009000001000000d9
:100410000000000000ac020002000000000000002c
:1004200004180000faab020000ac0200010000005a
:1004300004180000faab020001000000f8ab020053
:1004400000ac0200ffffff00ffff00004d7900003d
:100450007f3e00006208af00381804000000000072
:1004600084140400000000006228af00901804000b
:1004700000000000ec020400000000006248af0031
:1004800094180400000000003e0304000000000077
:020000040000fa
:100490000f9020000e7f24000e0188000000000055
:1004a00000012000200288000c000700c03021005d
:1004b0000100200011000700000020000000e00003
:1004c000020032000000020000000000460f02009f
:1004d000000000000040da000000fe004440a900d7
:1004e000000020000000e0000300320000002000b7
:1004f000a00188004440a800000006009101880087
:10050000800078000000eb0015003700e28040001a
:1005100032a0b4009101ba00e280400032a0b400e1
:100520009102ba00e280400032a0b4000002eb0069
:10053000472bde00f507b200602ce10004003a0012
:100540000059eb008301e900fdff3e000400370085
:100550006128e100010032000082eb000400070086
:100560001101ba000200e000e8ff3a0000000600b6
:100570003159ba008301e9000c0032002159ba0058
:100580008301e900080032000400e00003003a00a3
:10059000e280400032a0b400f5ff370011d9ba0064
:1005a0008301e900faff3a008100e800e1804000a1
:1005b00032a0b40000000600241404000000000073
:1005c000801f78000040da00007028008020b6000c
:1005d0004f00780000400600809fbe00829fbe0052
:1005e000849fbe00869fbe00889fbe0087c0a90072
:1005f000c4872000e6035200f6052000e402520002
:100600002206200004014100100020008481e8003f
:1006100011003700b9118000940078009811800013
:100620006e046400010a7400970f13000200360084
:100630001400a00008003700950078008958780061
:10064000810a7800828f500001003900830a780007
:1006500061872000910840003202ab00edff3a00b4
:100660003222a9004f04be004f03be004f02be005d
:100670004f01be004f00be0000400600809fbe003c
:10068000829fbe00849fbe00869fbe00881f7800a8
:1006900087e0a9003322ab001b003a0044438000ee
:1006a000e00f520005003a00170037008000eb0011
:1006b000908f100007003a0013003700c486200016
:1006c000ea0342000481e800160020000520200013
:1006d0006600510094007800314478008881fb0066
:1006e000a3118800010a7800878f500001003900ab
:1006f000020a780081862000910813009111800081
:1007000085806000e9ff32004f0478004f03be008f
:100710004f02be004f01be004f00be000040060069
:100720006022b800060220000000d0008180d200c4
:100730000482d2008582d2000000a0000202520092
:1007400083825a00030031000202420083824a0081
:100750000000a1000603e900f3ff3a0000000600d4
:100760000002780002003700315a78000201e900e7
:0c077000e00f5100fcff3a000000060002
:020000040000fa
:10077c00e8874700889fbe008a9fbe008c9fbe0002
:10078c008e1f780000047800240020000500200053
:10079c00e4b79f00f5b79f006fb39700ffb39700c6
:1007ac00144380002543800004006300058363002c
:1007bc0007002000c032dd00040020006103b800f7
:1007cc0006027200878272000000eb00e00f5200fc
:1007dc00e08f5a0071013a009415020000000000ed
:1007ec00e00f50001d003a0000102000e00f5400f4
:1007fc006a01320096140200000000000004be00e2
:10080c007815020000000000e00f500009003a00cb
:10081c00c6478000d74780000603540087835c00de
:10082c008442800095428000840f5300858f5b00ca
:10083c0004003e00e44380006402620000102000cb
:10084c00560132007015020000000000c8478800f5
:10085c00d947880000102000500137009614020080
:10086c0000000000c0478800d1478800ea1402004d
:10087c0000000000804678000002fb00cfa2de00e2
:10088c003402b1000580b10046042000860f5200ee
:10089c00e08f5a002f013e00046001007c003700fd
:1008ac002c0137002b0137002a01370029013700b2
:1008bc0028013700270137002601370025013700b2
:1008cc0024013700230137002201370021013700b2
:1008dc00200137001f0137001e0137001d013700b2
:1008ec001c0137001b0137001a01370019013700b2
:1008fc0018013700170137001601370015013700b2
:10090c001401370013013700120137005a00370069
:10091c00100137000f0137000e013700aa00370015
:10092c000c013700260037000a0137000901370097
:10093c00a500370007013700060137000501370015
:10094c0004013700a0003700020137000101370015
:10095c009d003700ff003700fe003700fd00370018
:10096c00fc00370012003700fa003700f90037009e
:10097c00f8003700f7003700f6003700f5003700b5
:10098c00f4003700f3003700f2003700f1003700b5
:10099c00f0003700ef003700ad0037007f00370064
:1009ac007e0037007d003700ea0037004e0037002c
:1009bc00ca140200000000008042eb00f200370075
:1009cc0096140200000000000004be000a01200082
:1009dc009415020000000000e00f500004003200eb
:1009ec008815020000000000e00f50000d003a00d6
:1009fc009614020000000000080050008980580086
:100a0c0084428000954280004e2bdd004222de00a5
:100a1c0004027300c22ade00840f5000858f580038
:100a2c00ebff390096140200000000000800500093
:100a3c008980580084428000954280004e2bdd0056
:100a4c004222de0004027300c22ade00840f500032
:100a5c00858f5800c7003100ea1402000000000026
:100a6c00ca140200000000000a05e900d8ff3a0091
:100a7c008042eb00c400370001012000e08d200013
:100a8c003c100200000000008042eb00be0037006a
:100a9c00b0c2b300ca140200000000004c140200e3
:100aac00000000006014020000000000501402005e
:100abc000000000060140200000000006815020035
:100acc0000000000000478009415020000000000f3
:100adc00080040000100200060140200000000002b
:100aec008042eb00a80037006420200005002000a5
:100afc00e4b79f00f5b79f006fb59700ffb597005f
:100b0c00b0c2b300ca140200000000000007eb00e2
:100b1c000a00be002215020000000000000478004c
:100b2c0062054500e0854d00ba140200000000008b
:100b3c0008064400140032000c02e90084bf9f0038
:100b4c000a04be000800be002215020000000000ce
:100b5c00721402000000000062044400e0844c00a7
:100b6c000c06e900f7ff3a0062054500e0854d00f0
:100b7c000fbb97006132b8000402420085824a0024
:100b8c000a0542008b854a000e07e800e30f570068
:100b9c00dfff3a008042eb007b003700b0c2b300ad
:100bac00ca140200000000000d00fb003006b1006a
:100bbc00c20f0200000000006014020000000000e0
:100bcc008042eb0070003700648f200014427800e4
:100bdc00e04f520004003a00d5c4b300854f5000da
:100bec0012003a0065003700d5c4b300854f52009f
:100bfc0005003a0034c4b3008042eb00844f50002f
:100c0c0061003a005f00370035c4b300854f5200d5
:100c1c0006003a008042eb0084c4b300844f5000bd
:100c2c0059003a0084427800570037008042eb00ac
:100c3c0086c4b300864f520053003a0005c5b3007a
:100c4c0085cf5600500032008042eb004e0037003a
:100c5c008042eb0004c5b300668f2000964f120053
:100c6c0049003a00b0c2b300ca14020000000000f0
:100c7c0084478000e00f52000f0032004009200032
:100c8c00420a2000000151000281d1008000eb00db
:100c9c003a150200000000006228ef006428ef0003
:100cac0090478000a14780009a13020000000000ca
:100cbc008e150200000000006044b8001cc22f001a
:100ccc000085eb008085eb003c4388000800be00eb
:100cdc00d8090200000000000004be008a0f50007a
:100cec008b8f580004003200e0c2b300ca1402001b
:100cfc0000000000f4ff3700b0c2b300ca140200b9
:100d0c0000000000803e2000e00602000000000011
:100d1c00cf80de00c000dd00000020006014020067
:100d2c000000000084478000e00f520003003200f6
:100d3c003e130200000000000000fe0096140200aa
:100d4c0000000000c0478800d14788008042eb00bb
:100d5c000d003700648f2000004aeb00e00f5400b8
:100d6c000200320070150200000000000d00fb00b4
:100d7c000a0037008042eb00030037008042780005
:100d8c000100370080427800648f2000054a78000b
:100d9c000d00fb0004002800040070004f077800d1
:100dac004f06be004f05be004f04be008f00b100c1
:040dbc00000006002d
:020000040000fa
:100dc000cf33b000889fbe008a9fbe008c9fbe00bc
:100dd0008e1f7800000678006022b80084b79f005c
:100de00095b79f000480210005002000b4b79f0044
:100df000c5b79f003fb49700cfb49700e4bf2a0067
:100e000025002000b4b79f00c5b79f003fb09700f2
:100e1000cfb09700d0b79f00e1b79f008c0178005a
:100e200002fe2f000f014100c101200080cb2f00e6
:100e30000f004000000d0200000000008086eb0063
:100e4000fc0f500052013a004f9b9400df9b94002e
:100e50007c025300e0825b00c49f9c00d59f9c00f5
:100e60006033b800a6af9c00b7af9c00e40f5200ff
:100e7000e08f5a001e0136001d002000c7cd2f0054
:100e80008f8343000707e9002faa9400bfaa9400ac
:100e9000e00f5200e08f5a0016003a008c017800f3
:100ea00002fe2f000f0141008100200040cd2f00e5
:100eb0000f004000000d020000000000e80f50008d
:100ec00026013a004f989400df9894006800500083
:100ed000e0805800c09f9c00d19f9c002faa9400e6
:100ee000bfaa940068025200e0825a00a4af9c009e
:100ef000b5af9c002faa9400bfaa94004f9b94000a
:100f0000df9b9400060072008780720006f82f00b5
:100f10000103630013013a00f6ff2f00f70f2000d2
:100f20004fa89400dfa89400860f5000878f5800c8
:100f30000e013e000b182000f7172000870f52000b
:100f4000e08f5a0001003e00840578008c01780093
:100f500002fe2f000f0141008b007800c0cd2f0052
:100f60000f004000000d02000000000000057800a6
:100f70008b0f5500ff003a000a017800c1cd2f0009
:100f80008f804000c0e52f000f0040002e150200aa
:100f9000000000000060fe00f03d20006628b40064
:100fa0008a017800c2cd2f000f0141004fa89400a4
:100fb000dfa894000c14020000000000e0af9f00c6
:100fc000f1af9f000a017800c1e52f008f8040003b
:100fd000c0cd2f000f0040002e15020000000000c1
:100fe0000a0278008000eb004fa99400dfa994006a
:100ff000c0e52f000f0040001012020000000000aa
:101000000a017800c1e52f008f804000c0cd2f007d
:101010000f004000fa14020000000000e00f500032
:101020009e0032004fa89400dfa89400f0b79f0004
:1010300081bf9f0004f02f00f50f2000ffb0970044
:10104000010062008fbb9700078362000700200049
:10105000c032dd00040020006103b8000602720007
:101060008782720006002000870f2000860f520042
:10107000878f5a000f003a000002eb00a4b79f00d0
:10108000840f5500470032000e027800c5e52f009e
:101090008f824200050345000402e80014407800f6
:1010a000354a6000868f5200fbff3a00aab79f00c6
:1010b0003c0037005fb29700efb29700e00f52009c
:1010c000e08f5a00370032008000eb000a00780001
:1010d000a8140200000000004faa9400dfaa9400a8
:1010e0005fb39700efb39700840f5300858f5b00c9
:1010f0002c0039007fb397008fbb9700000043009e
:10110000e0804b005fb39700efb39700800f530070
:10111000818f5b0023003100040053005e15020044
:10112000000000000400280005002000b4b79f0064
:10113000c5b79f003fb29700cfb29700e04f520073
:101140000c003a000000e800c82bdd004822de0059
:1011500004827300c82ade00e04f520005003a0006
:101160000000e800c828dd004822de00048270008c
:10117000c82ade0026002000a6b79f0004c2ea00ad
:1011800085cb2f008f82420000804200c062900019
:101190008542620045609800c062930004c262000c
:1011a00044609b004fab9400dfab9400f6b79f0008
:1011b00087bf9f008000eb000b007800a81402009e
:1011c000000000004faa9400dfaa9400840f54008e
:1011d000858f5c00100039007fb397008fbb9700ac
:1011e00000004300e0804b00800f5400818f5c00c2
:1011f00009003100040054005e15020000000000e8
:1012000087cb2f008f8343000080430000c2eb0098
:1012100044609800546098000b017800c1e52f00ed
:101220008f804000c0cd2f000f004000fa14020054
:1012300000000000e00f5000180032008b01780021
:10124000c2cd2f000f0141004fa89400dfa89400e9
:101250000e0c0200000000008b017800c2e52f0098
:101260000f0141004fa89400dfa894000e0c02006b
:10127000000000000b017800c1e52f008f804000c6
:10128000c0cd2f000f004000fa1402000000000043
:10129000e00f500039003a007dff2f006fa8970043
:1012a000ffa89700c0af9c00d1af9c00615bb80065
:1012b0004f989400df9894000602500087825800ef
:1012c000c49f9c00d59f9c002fa89400bfa89400a9
:1012d0000603500087835800a6af9c00b7af9c0060
:1012e000e40f5200e08f5a00e7fe3e000100370095
:1012f0001d0020008c0178000001eb00410020005f
:10130000c0fd2f000f004000000d02000000000093
:10131000e40f50001b003a000fb297009fb29700f5
:101320006fab9700ffab9700840f5300858f5b0076
:1013300016003a00d42c2100a4b79f00f03d2000f5
:101340006628b400230020007c8157000800be00fe
:10135000c0110200000000000d003700edff2f005b
:101360000b003700ddff2f0009003700cdff2f00f5
:1013700007003700bdff2f00050037008dff2f004d
:1013800003003700adff2f00010037009dff2f0045
:101390000d0078004f0778004f06be004f05be00d5
:1013a0004f04be00ef1fb100ef13b10000000600b4
:020000040000fa
:1013b000e6874700889fbe008a9fbe008c9fbe00c4
:1013c0008e1f78000004be0010c22f006608e300e4
:1013d000020032006628ef007f0037006628ef0029
:1013e000e00f5400e08f5c0011003a000080210003
:1013f00001002000f0b79f0081bf9f000005be00e4
:101400009e120200000000000000e00008003a0008
:10141000f03d20006628b4000a00be00c41302009c
:101420000000000018002000090020006a003700ba
:10143000004020000000e9008000eb000080ea008e
:101440008180ea000001640001806400800078006f
:10145000020078000004be0000c02a002100200025
:10146000f0b79f0081bf9f000005be00800f5400b1
:10147000818f5c0053003900000020000100200033
:10148000f0b79f0081bf9f000005be000000200054
:1014900001002000f0b79f0081bf9f007fb0970040
:1014a0008fb89700800f5400818f5c004500310099
:1014b0000004be00430037000c6020008c0178005f
:1014c0000001eb000800be000e0c0200000000004e
:1014d000000778000d4020008c0f570037003100c6
:1014e0000800be009e120200000000000000e000a4
:1014f00032003a006168b800800f5400818f5c00b0
:101500001c003900f03d20006628b4000800be0031
:10151000c413020000000000e0bf2a0021002000e8
:10152000f0b79f0081bf9f000001be000e00e000e9
:101530000c003a000d00e9008000eb000080ea009a
:101540008180ea000002610001816100820178006f
:10155000040178000200be00800f5400818f5c00ff
:1015600012003a000000eb00e00d02000000000055
:101570000e0037004615020000000000000578004c
:10158000f03d20006628b4000800be00c41302002d
:101590000000000010002000e00d0200000000002c
:1015a0000a007800981502000000000000402000aa
:1015b00008044000e0844c0007003700088446001f
:1015c000e0844c008a0f54008b8f5c00baff390016
:1015d0000084eb008084eb000800be004f07780019
:1015e0004f06be004f05be004f04be006f00b100a5
:0415f00000000600f1
:020000040000fa
:1015f4000000fe0061e7af00feff37003200f80094
:10160400070020000700e0002700320000008800e7
:1016140001008800a00f200090018800870f20009f
:101624000708e100710032004d00370086002000f9
:1016340002000900325b780091018800e21f40003b
:10164400e09f4800870f20000708e10004003200f3
:101654008403780085c363008783ea0011003200a5
:101664000408bb000598bb00829fbe003000240024
:10167400820f2000930180000310e1004220af009c
:10168400000024000081eb00513e20006608f800b1
:10169400d8120200000000006608f900800feb0079
:1016a4004f01be004f00be00e3815100dfff310057
:1016b400e2814100070033000082eb008082eb00ee
:1016c4008600200003800900325b78008001eb0073
:1016d400d9ff37006628ef003200f9000000060049
:1016e400800020000500090032587800850362005c
:1016f400870363008783ea00150032000000eb00d3
:101704000408bb000598bb00864278000580fd00f4
:101714000508bb000680fd000698bb00829fbe0042
:101724001000240060c7a80060c7af002080b2008a
:101734000081eb00513e20006608f800d812020038
:10174400000000006608f900800feb004f01be00a6
:10175400400020000020b4000000eb0000a0b40012
:10176400e6815100deff3100e581410007003300ce
:10177400e00020000200090000a0eb000380090043
:10178400325878008001eb00d8ff37006628ef005c
:101794003200f90000008000010080000000060013
:1017a4008000200002000900325878000000eb009d
:1017b4000408bb0005c8bb00829fbe0000002400d3
:1017c4000081eb00513e20006608f800d8120200a8
:1017d400000000006608f900800feb004f01be0016
:1017e40000a0ec000000eb0000a0b400e381510075
:1017f400ebff3100e2814100e4ff33008000200070
:101804000082eb008082eb000380090032587800ec
:081814008001eb00e5ff370045
:020000040000fa
:10181c00f8874700889fbe008a9fbe008c9fbe0041
:10182c008e1f78000004be00b2b79f00030778003b
:10183c00c1fd2f008f8040000e007800a81402001c
:10184c0000000000efa897000100e000010032004a
:10185c000080e80008014000e0814c00c2b79f0006
:10186c00d3b79f00c020200001002000f0af9f00e4
:10187c0081b79f000005be00221502000000000089
:10188c008006780062054500e0854d000006eb00ff
:10189c004f0037000a00be002215020000000000b5
:1018ac000001be0062004500e0804d00f2b79f00d1
:1018bc00e3b79f0022150200000000000002be00ea
:1018cc0064054500e0854d007fb19700efb19700ae
:1018dc004fb39700dfb39700820f5300838f5b00e9
:1018ec003a003600800f5400818f5c0037003100c5
:1018fc00bfb3970087bf9f00880f5100898f590095
:10190c000e0036000801510002007800e4b79f0079
:10191c00f5b79f005e150200000000000001780082
:10192c003fb097000200400080bf9f0002015700ab
:10193c006fb29700ffb29700010037000e017800dc
:10194c004fb39700dfb39700860f5200878f5a0072
:10195c000600310004005300f2b79f005e15020030
:10196c00000000007fb19700000151000206460004
:10197c00bfb397000700e0001400320000f02f0006
:10198c00f10f200088016000098360006132b8000b
:10199c0094b79f00a5b79f00c022dd000400200073
:1019ac00611bb800060272008782720006002000dc
:1019bc00870f2000860f5200878f5a0003003200d9
:1019cc000fb897003a150200000000008d06e900e0
:1019dc000d00e000afff3a000c0078004f077800d4
:1019ec004f06be004f05be004f04be008f01b10074
:0419fc0000000600e1
:020000040000fa
:101a0000ee874700889fbe008a9fbe008c9fbe0065
:101a10008e1f7800c0b79f0001077800b2b79f0003
:101a20000305780096140200000000000004be00c8
:101a30000b002000b44280000aa2b900a642800038
:101a40000655b8008b054200681502000000000032
:101a50000006780094150200000000000c0640000b
:101a60000c06d100dcb79f000002eb0084bf9f0092
:101a7000840f57004b0032008006eb00fdb79f003b
:101a80008d025700e5b79f006815020000000000b6
:101a90007fb2970004065000efb29700850f560002
:101aa00001003600050678005fb297008c0f5200e7
:101ab000050036000d0246008e0f520009003a0064
:101ac000e00f5600070032000c007800ba14020044
:101ad00000000000ffb297008c824200f5b79f0023
:101ae0008c8646009415020000000000e00f5000b4
:101af00008003a009614020000000000080250009e
:101b000089825800840f5500858f5d00f5ff3e00e7
:101b1000240037008fba97000502570000067800ae
:101b2000840f560001003600040678008c0078000f
:101b30004fb097006a110200000000003fb297000a
:101b4000e00f5200070032008c0178004fb197007f
:101b50001400be005c12020000000000bfb297003b
:101b6000808abe000fba97000c02420084bf9f001b
:101b700096140200000000000004be008fba970017
:101b8000850f5700070032007fb297000c02520009
:101b9000f4b79f00cfb297008c824200c5b79f0078
:101ba000b7ff37000fb897004f0778004f06be0009
:101bb0004f05be004f04be00ef00b100000006005c
:020000040000fa
:101bc0000f03b000889fbe008a9fbe008c9fbe009e
:101bd0008e1f7800e0b79f00c02120000100200088
:101be000a0a79f00b1a79f000006be00221502001b
:101bf000000000000001780082bf9f0062064600de
:101c0000e0864e004a0037000c00be00221502009c
:101c1000000000000004be0062064600e0864e00a0
:101c20000c00be0022150200000000006206460003
:101c3000e0864e0008015000f2b79f0002007800d5
:101c40005e15020000000000000778004a02200034
:101c50008005eb002e0037000b0045008e0f500072
:101c6000010036000b0557000a0278008b0078004f
:101c70000c01be0080fc2f000f004000101202007b
:101c80000000000000f02f00f10f200008026000ab
:101c90000981600082017800040178000200be0022
:101ca00002002000830f2000820f5000838f580015
:101cb0000d003a006628ef006fb097000000e000ca
:101cc00002003200f03d2000304388008a01780095
:101cd00082fc2f000f0141000800be00fc0a020038
:101ce0000000000008003700f03d2000304388006d
:101cf0008a01780082fc2f000f0141000800be001d
:101d0000c0110200000000000004be008a854500ea
:101d10008e8f5500d0ff39007fb197000c0641002f
:101d2000e0864e000fb897000000e90080bf9f00da
:101d30000fb997000200e000b3ff3a0080150200df
:101d4000000000004f0778004f06be004f05be00a0
:0c1d50004f04be000f03b10000000600ad
:020000040000fa
:101d5c00a50920000003eb00840720003774200045
:101d6c00844b7800854b7800864b780075052000f5
:101d7c00160020006404200027742000844b780097
:101d8c00854b7800864b78004207ab00feff3a008b
:101d9c0004002b00243a880014002000a60920001f
:101dac008507200037742000854b7800864b78001f
:101dbc00844b7800760520006504200027742000f1
:101dcc00854b7800864b7800844b7800000c220001
:101ddc00d822b700f042a90000f02f00f022b60084
:101dec00f422b600e022b600e422b600f0fc2f008c
:101dfc00d822b600dc22b600c9e2a900cde2a900c7
:101e0c002de3a9000082eb00c4168800d4168800cc
:101e1c0021742000620420007305200082487800a1
:101e2c008348780042c7a9003535800004fc2f0098
:101e3c00848262001501b300353588005536800068
:101e4c00048262005400b3005436880021742000d0
:101e5c0062042000730520008248780083487800d3
:101e6c0042c7a800e8a2a800e882a900240020002c
:101e7c007447880000002c00810a20000000060036
:020000040000fa
:101e8c000200fa00889fbe008a9fbe008c9fbe0095
:101e9c006044b8001843880029438800ae0e020045
:101eac000000000090478800a14788009a130200a8
:101ebc00000000000801be0090478000a147800090
:101ecc000e11020000000000961402000000000039
:101edc000002eb00844788000806be004a4221003d
:101eec000b00200096140200000000000004be004d
:101efc000c0350008d835800a0428000b14280003a
:101f0c00450add00cb02de00850272004502dd00d1
:101f1c00840f5300858f5b000500360012002000f3
:101f2c000a00be0038140200000000000806be00c3
:101f3c000060fe0010002000be0302000000000044
:101f4c000004780098bf9f003ff29700e04f5200ca
:101f5c0003003a00d0c2b300ca1402000000000013
:101f6c0004102000840f5400deff3200961402008f
:081f7c0000000000dbff37004c
:020000040000fa
:101f84000800fa00889fbe008a9fbe008c1f78005c
:101f94006220200003002000f2b79f0083bf9f004f
:101fa4000205be00e10f500003003a00c0202000eb
:101fb4000100200004003700e20f500005003a0041
:101fc4006021200001002000f0b79f0081bf9f0026
:101fd4000005be000a00be00221502000000000039
:101fe400000678006044b8001a003700620045001b
:101ff400e0804d0022150200000000000001be0038
:1020040064054500e0854d000a00be0092bf9f00b4
:10201400a3bf9f0022150200000000001fb9970013
:10202400afb9970002005000838058005215020097
:10203400000000000002be001fb99700afb997006e
:102044000800be00ae100200000000000004be0044
:102054000c06e9000c00e000e4ff3a000800be00b2
:102064004f0678004f05be004f04be000080fa0002
:042074000000060062
:020000040000fa
:10207800e4874700889fbe008a9fbe008c9fbe00f1
:102088008e1f780081bf9f0001027800e00f520088
:102098002600320080057800840478008c862000b1
:1020a8008c86e8006e074600850020009c8f120091
:1020b80003003a0010002000ea13020000000000ac
:1020c8001d00780000055700850020001c82520082
:1020d8000a047800840f55000100360004047800d3
:1020e800890f5400010036000904780008017800bf
:1020f8008b007800b003020000000000a1862000d9
:1021080091084400880f550002003a00e486200038
:10211800840e780081862000910844008884540049
:102128000200320088854500dfff37003322ab000c
:1021380001003a0087e0a8000fb897004f07780021
:102148004f06be004f05be004f04be004f00b10051
:04215800000006007d
:020000040000fa
:10215c000802fa00889fbe008a9fbe008c1f780080
:10216c000004be000205be000403be000c202000cb
:10217c00180037000c0278008000eb000a01be004a
:10218c00e0de2f000f00400096bf9f00a7bf9f000e
:10219c0010120200000000008c017800e2de2f001b
:1021ac000f0141000800be005c120200000000009c
:1021bc000004be004a15b0000b80b0001fbb970096
:1021cc00afbb97007fb097008fb897000003530008
:1021dc0081835b006160b800f0b79f0081bf9f00f6
:1021ec00800f5300818f5b00e2ff31000606780000
:1021fc000600e000f7ff3a000800be004f0678002a
:10220c004f05be004f04be000080fa00000006001f
:020000040000fa
:10221c00889fbe008a9fbe000005be000204be005f
:10222c0097e0a90097c0a9000002eb008411880078
:10223c00e44388000a150200000000001615020095
:10224c00000000009405800004c0a00004d0a10090
:10225c0004e0a1009405880031e2a8003062a800d7
:10226c00e00f5400e08f5c0002003a0030a2a8009e
:10227c000c0037000800440089804c000000450029
:10228c0081804d004249dd00ce41de0083017100aa
:10229c004241dd0090030200000000000002e90052
:1022ac00c41188003342a8003222a90087c0a900bb
:1022bc0087e0a90097c0a80097e0a8004f05be00d2
:0822cc004f04be0000000600f3
:020000040000fa
:1022d400889fbe008a9fbe008c9fbe008e1f780020
:1022e40001077800e00f57001d0032000006780057
:1022f4008e047800ab8720004d0620008b864600b4
:102304001b855600090478008a8f540001003600aa
:102314000a04780008007800da14020000000000c3
:102324009b007800080178000c007800b0030200dc
:102334000000000008064600a18720009108440020
:10234400880f550002003a00e4872000840d7800cd
:10235400618720009108140088845400e8ff3a0043
:102364000e0078004f0778004f06be004f05be00f0
:082374004f04be00000006004a
:020000040000fa
:10237c000000fe00809fbe003200f8009101880032
:10238c000300e0001f0032000202be000600200025
:10239c000600e0004220ae0036002000630343003c
:1023ac0003003700060242008682520015003600f8
:1023bc008080eb0090c0ba00b003ba008183630048
:1023cc006630e10004003a0090c0ba0081836300db
:1023dc00b000ba00818363000000e0004220af002f
:1023ec003220ec008783ea00eeff320000daeb00cb
:1023fc008502e900030032000603e900fbff3a0006
:10240c00e2ff37003200f9004f00be00fc0a040066
:04241c0000000000bc
:020000040000fa
:102420000400e00023003200800278006208b80057
:1024300036002000110009004688d8000001410044
:102440000380b00097018000930188006102520070
:102450000200a7000b0037000201e9006102420000
:102460000110a6000c0037000281e800925aba0061
:102470000482e9000e003900020037000100090063
:10248000d25aba00c2daba000201e8000203e80038
:102490004220af003220ec0063025200f7ff31000f
:1024a000620242000200330004800900d25aba00de
:0824b0009701880000000600fe
:020000040000fa
:1024b8000080ea008180ea008500200006322800ba
:1024c80087db2e0010003700b25a7800b25278002d
:1024d80004006800840020008100d1000080d3003f
:1024e8000200390006006800878068008100d1007a
:1024f8000080d30002003900060068008780680069
:102508000402e900f4ff3a00e2815100eeff3b00cb
:10251800e2814100040032001240680044002000bb
:1025280003002000ecff37000080ea008180ea0009
:042538000000060099
:020000040000fa
:10253c00920180009101880003c02f00008061008f
:10254c000320200004022000040040000083eb0064
:10255c008083eb000f000900c01fba000f000900b8
:10256c004f0363008682ea0009003a000f0009005d
:10257c00b09fba000f000900cf83630087c2ea0046
:10258c0003003a0004004000f0815100f1ff3a00d2
:10259c00920188004220af001000050000000500e9
:020000040000fa
:1025ac000000fe0013028000040e2000003b880097
:1025bc00374380006628ef00013bb80061322100f0
:1025cc00b709b0001402880081005300313b880029
:1025dc0000f0a600373b880061e7a800000000006f
:1025ec00000000000200a600130288008000eb002f
:1025fc008003eb000208a30061e7af00feff3a0086
:0c260c0061c7a90013028800000006004e
:020000040000fa
:10261800de0800001000000002000000455a4200d9
:102628004c207600312e30003120550041525400a4
:1026380000000000ee0800000e000000000000008e
:10264800680800007600000000000000fc08000098
:102658000400000000000000500800001200000004
:1026680000000000660800000200000000000000f2
:04267800000000005e
:020000040000fa
:10267c000200fa00848620008002eb00948f120086
:10268c00fdff3a0005102000941180000502620045
:10269c00fdff3a00c41180004522dd00f4bf9f000d
:1026ac007fba9700e00f520006003200ffba970085
:1026bc008502e900f5bf9f007fba9700e00f52003a
:0c26cc00faff3a000080fa00000006004f
:020000040000fa
:1026d800889fbe000004be008042880091428800a6
:1026e800401fb0000180b000823e2000030020009f
:1026f8009003020000000000a0428800b142880058
:1027080000122a007100200008004000898048005b
:1027180002242400f30020009003020000000000bf
:0c272800c04288004f04be000000060004
:020000040000fa
:1027340005a1a9000421a900240880000440a100e7
:102744000450a100240888000441a80002a1ef005d
:10275400e0478800f14788002405800004c0a100f8
:1027640004d0a10004e0a000240588009460a8001f
:102774006c1302000000000005e1a8000000060040
:020000040000fa
:102784000000fe0061e7af00feff370002002000fa
:102794000200e00004003a009201800091018800e8
:1027a4000308bb0092018800000088000100880033
:1027b4002004240060c7a80060c7ae001084b200e3
:1027c4000081eb00513e2000d812040000000000fc
:020000040000fa
:1027d4004443800068021200840f50000b0036004e
:1027e40006202000858620009411800006026200e5
:1027f40001003a0087e0a8000140fe0087002000a5
:1028040015825300800f5200f7ff390000000600c4
:020000040000fa
:102814000000fe006608f8006628ef00809fbe00f6
:10282400829fbe000e0c0200000000004f01be009b
:102834004f00be006608f900800feb00fc0a04009c
:042844000000000090
:020000040000fa
:10284800d802a900d51680008582ea00e1826200dc
:10285800d41680000400a10005027200d416880076
:082868000000eb000000060077
:020000040000fa
:10287000f10fb200821f7800010170004f01780053
:1028800004003200809fbe000200be000401be00b2
:082890000602be000000060074
:020000040000fa
:10289800000020000000a700200020009201800016
:1028a800f10f2000910188009080ba001000ba0052
:0828b8009201880000000600f7
:020000040000fa
:1028c0000400fa00e0bf9f00f1bf9f00410020001c
:1028d000648057003c100200000000000080fa00f5
:0428e00000000600ee
:020000040000fa
:1028e4000400fa00e0bf9f00f1bf9f003100200008
:1028f400648057003c100200000000000080fa00d1
:0429040000000600c9
:020000040000fa
:10290800801f78008460a9005a28ec000000eb00c2
:102918005ca8b4005ea8b40060a8b4004f007800ba
:042928000040060065
:020000040000fa
:10292c0000088000d142800002088000d342800061
:10293c0000015100faff330083816800f8ff3a0070
:04294c000000060081
:020000040000fa
:102950000101780033002000110009000380d80035
:102960000000d0000200e0004220ae000109780023
:04297000000006005d
:020000040000fa
:102974000200fa00f0bf9f00210020000f80e90050
:102984003c100200000000000080fa000000060075
:020000040000fa
:102994000200fa00e0ff9f00110020000f80e90010
:1029a4003c100200000000000080fa000000060055
:020000040000fa
:1029b400b4438000840f5000040036006487200074
:1029c4000140fe00940f1000fdff390000000600d6
:020000040000fa
:1029d4000200fa00110020000f80e9006a110200d1
:1029e400000000006ff897000080fa000000060065
:020000040000fa
:1029f4008001eb000201e9004200ae000000050086
:102a0400b0417800b1c16900faff3200100005003e
:020000040000fa
:102a1400e486200054438800644388006602520020
:082a2400000aeb0000000600af
:020000040000fa
:102a2c00e4872000c4438800d44388006802520025
:082a3c00000aeb000000060097
:020000040000fa
:102a440092018000910188009080ba001000ba00c1
:082a5400920188000000060059
:020000040000fa
:102a5c000200e000030032000201e90002800900dc
:082a6c0031587800000006005b
:020000040000fa
:102a74000200e000030032000201e90002800900c4
:082a8400015878000000060073
:020000040000fa
:102a8c00000e2000120280008280ea004220b70073
:082a9c000100600000000600cb
:020000040000fa
:102aa4000001be008100d1000080d300020040007c
:082ab4008380480000000600c9
:020000040000fa
:102abc00000178000000d10002004000e000490055
:042acc000000060000
:020000040000fa
:102ad000b4438000000620000400500000000600ff
:020000040000fa
:102ae000c48720001420a10030a2a8000000060026
:020000040000fa
:102af000801180004500de006100600000000600db
:020000040000fa
:102b000061e7af00feff370061c7a90000000600c3
:020000040000fa
:0c2b100040438000680010000000060038
:020000040000fa
:0c2b1c0097c0a80097e0a8000000060089
:020000040000fa
:082b2800b0438000000006002c
:020000040000fa
:082b300042a0b60000000600ff
:020000040000fa
:020000040005f5
:0457f400ffff0000b3
:020000040000fa
:020000040005f5
:0457f8004d790000e7
:020000040000fa
:020000040005f5
:0457fc007f3e0000ec
:00000001FF
